{
  "_format": "hh-sol-artifact-1",
  "contractName": "Token",
  "sourceName": "contracts/Token.sol",
  "abi": [
    {
      "inputs": [
        {
          "internalType": "address",
          "name": "account",
          "type": "address"
        }
      ],
      "stateMutability": "nonpayable",
      "type": "constructor"
    },
    {
      "anonymous": false,
      "inputs": [
        {
          "indexed": true,
          "internalType": "address",
          "name": "owner",
          "type": "address"
        },
        {
          "indexed": true,
          "internalType": "address",
          "name": "spender",
          "type": "address"
        },
        {
          "indexed": false,
          "internalType": "uint256",
          "name": "amount",
          "type": "uint256"
        }
      ],
      "name": "Approval",
      "type": "event"
    },
    {
      "anonymous": false,
      "inputs": [
        {
          "indexed": true,
          "internalType": "address",
          "name": "delegator",
          "type": "address"
        },
        {
          "indexed": true,
          "internalType": "address",
          "name": "fromDelegate",
          "type": "address"
        },
        {
          "indexed": true,
          "internalType": "address",
          "name": "toDelegate",
          "type": "address"
        }
      ],
      "name": "DelegateChanged",
      "type": "event"
    },
    {
      "anonymous": false,
      "inputs": [
        {
          "indexed": true,
          "internalType": "address",
          "name": "delegate",
          "type": "address"
        },
        {
          "indexed": false,
          "internalType": "uint256",
          "name": "previousBalance",
          "type": "uint256"
        },
        {
          "indexed": false,
          "internalType": "uint256",
          "name": "newBalance",
          "type": "uint256"
        }
      ],
      "name": "DelegateVotesChanged",
      "type": "event"
    },
    {
      "anonymous": false,
      "inputs": [
        {
          "indexed": true,
          "internalType": "address",
          "name": "from",
          "type": "address"
        },
        {
          "indexed": true,
          "internalType": "address",
          "name": "to",
          "type": "address"
        },
        {
          "indexed": false,
          "internalType": "uint256",
          "name": "amount",
          "type": "uint256"
        }
      ],
      "name": "Transfer",
      "type": "event"
    },
    {
      "inputs": [],
      "name": "DELEGATION_TYPEHASH",
      "outputs": [
        {
          "internalType": "bytes32",
          "name": "",
          "type": "bytes32"
        }
      ],
      "stateMutability": "view",
      "type": "function"
    },
    {
      "inputs": [],
      "name": "DOMAIN_TYPEHASH",
      "outputs": [
        {
          "internalType": "bytes32",
          "name": "",
          "type": "bytes32"
        }
      ],
      "stateMutability": "view",
      "type": "function"
    },
    {
      "inputs": [
        {
          "internalType": "address",
          "name": "account",
          "type": "address"
        },
        {
          "internalType": "address",
          "name": "spender",
          "type": "address"
        }
      ],
      "name": "allowance",
      "outputs": [
        {
          "internalType": "uint256",
          "name": "",
          "type": "uint256"
        }
      ],
      "stateMutability": "view",
      "type": "function"
    },
    {
      "inputs": [
        {
          "internalType": "address",
          "name": "spender",
          "type": "address"
        },
        {
          "internalType": "uint256",
          "name": "rawAmount",
          "type": "uint256"
        }
      ],
      "name": "approve",
      "outputs": [
        {
          "internalType": "bool",
          "name": "",
          "type": "bool"
        }
      ],
      "stateMutability": "nonpayable",
      "type": "function"
    },
    {
      "inputs": [
        {
          "internalType": "address",
          "name": "account",
          "type": "address"
        }
      ],
      "name": "balanceOf",
      "outputs": [
        {
          "internalType": "uint256",
          "name": "",
          "type": "uint256"
        }
      ],
      "stateMutability": "view",
      "type": "function"
    },
    {
      "inputs": [
        {
          "internalType": "address",
          "name": "",
          "type": "address"
        },
        {
          "internalType": "uint32",
          "name": "",
          "type": "uint32"
        }
      ],
      "name": "checkpoints",
      "outputs": [
        {
          "internalType": "uint32",
          "name": "fromBlock",
          "type": "uint32"
        },
        {
          "internalType": "uint96",
          "name": "votes",
          "type": "uint96"
        }
      ],
      "stateMutability": "view",
      "type": "function"
    },
    {
      "inputs": [],
      "name": "decimals",
      "outputs": [
        {
          "internalType": "uint8",
          "name": "",
          "type": "uint8"
        }
      ],
      "stateMutability": "view",
      "type": "function"
    },
    {
      "inputs": [
        {
          "internalType": "address",
          "name": "delegatee",
          "type": "address"
        }
      ],
      "name": "delegate",
      "outputs": [],
      "stateMutability": "nonpayable",
      "type": "function"
    },
    {
      "inputs": [
        {
          "internalType": "address",
          "name": "delegatee",
          "type": "address"
        },
        {
          "internalType": "uint256",
          "name": "nonce",
          "type": "uint256"
        },
        {
          "internalType": "uint256",
          "name": "expiry",
          "type": "uint256"
        },
        {
          "internalType": "uint8",
          "name": "v",
          "type": "uint8"
        },
        {
          "internalType": "bytes32",
          "name": "r",
          "type": "bytes32"
        },
        {
          "internalType": "bytes32",
          "name": "s",
          "type": "bytes32"
        }
      ],
      "name": "delegateBySig",
      "outputs": [],
      "stateMutability": "nonpayable",
      "type": "function"
    },
    {
      "inputs": [
        {
          "internalType": "address",
          "name": "",
          "type": "address"
        }
      ],
      "name": "delegates",
      "outputs": [
        {
          "internalType": "address",
          "name": "",
          "type": "address"
        }
      ],
      "stateMutability": "view",
      "type": "function"
    },
    {
      "inputs": [
        {
          "internalType": "address",
          "name": "account",
          "type": "address"
        }
      ],
      "name": "getCurrentVotes",
      "outputs": [
        {
          "internalType": "uint96",
          "name": "",
          "type": "uint96"
        }
      ],
      "stateMutability": "view",
      "type": "function"
    },
    {
      "inputs": [
        {
          "internalType": "address",
          "name": "account",
          "type": "address"
        },
        {
          "internalType": "uint256",
          "name": "blockNumber",
          "type": "uint256"
        }
      ],
      "name": "getPriorVotes",
      "outputs": [
        {
          "internalType": "uint96",
          "name": "",
          "type": "uint96"
        }
      ],
      "stateMutability": "view",
      "type": "function"
    },
    {
      "inputs": [],
      "name": "name",
      "outputs": [
        {
          "internalType": "string",
          "name": "",
          "type": "string"
        }
      ],
      "stateMutability": "view",
      "type": "function"
    },
    {
      "inputs": [
        {
          "internalType": "address",
          "name": "",
          "type": "address"
        }
      ],
      "name": "nonces",
      "outputs": [
        {
          "internalType": "uint256",
          "name": "",
          "type": "uint256"
        }
      ],
      "stateMutability": "view",
      "type": "function"
    },
    {
      "inputs": [
        {
          "internalType": "address",
          "name": "",
          "type": "address"
        }
      ],
      "name": "numCheckpoints",
      "outputs": [
        {
          "internalType": "uint32",
          "name": "",
          "type": "uint32"
        }
      ],
      "stateMutability": "view",
      "type": "function"
    },
    {
      "inputs": [],
      "name": "symbol",
      "outputs": [
        {
          "internalType": "string",
          "name": "",
          "type": "string"
        }
      ],
      "stateMutability": "view",
      "type": "function"
    },
    {
      "inputs": [],
      "name": "totalSupply",
      "outputs": [
        {
          "internalType": "uint256",
          "name": "",
          "type": "uint256"
        }
      ],
      "stateMutability": "view",
      "type": "function"
    },
    {
      "inputs": [
        {
          "internalType": "address",
          "name": "dst",
          "type": "address"
        },
        {
          "internalType": "uint256",
          "name": "rawAmount",
          "type": "uint256"
        }
      ],
      "name": "transfer",
      "outputs": [
        {
          "internalType": "bool",
          "name": "",
          "type": "bool"
        }
      ],
      "stateMutability": "nonpayable",
      "type": "function"
    },
    {
      "inputs": [
        {
          "internalType": "address",
          "name": "src",
          "type": "address"
        },
        {
          "internalType": "address",
          "name": "dst",
          "type": "address"
        },
        {
          "internalType": "uint256",
          "name": "rawAmount",
          "type": "uint256"
        }
      ],
      "name": "transferFrom",
      "outputs": [
        {
          "internalType": "bool",
          "name": "",
          "type": "bool"
        }
      ],
      "stateMutability": "nonpayable",
      "type": "function"
    }
  ],
  "bytecode": "0x60806040523480156200001157600080fd5b506040516200309538038062003095833981810160405281019062000037919062000194565b6a084595161401484a000000600160008373ffffffffffffffffffffffffffffffffffffffff1673ffffffffffffffffffffffffffffffffffffffff16815260200190815260200160002060006101000a8154816bffffffffffffffffffffffff02191690836bffffffffffffffffffffffff1602179055508073ffffffffffffffffffffffffffffffffffffffff16600073ffffffffffffffffffffffffffffffffffffffff167fddf252ad1be2c89b69c2b068fc378daa952ba7f163c4a11628f55a4df523b3ef6a084595161401484a0000006040516200011b9190620001e1565b60405180910390a350620001fe565b600080fd5b600073ffffffffffffffffffffffffffffffffffffffff82169050919050565b60006200015c826200012f565b9050919050565b6200016e816200014f565b81146200017a57600080fd5b50565b6000815190506200018e8162000163565b92915050565b600060208284031215620001ad57620001ac6200012a565b5b6000620001bd848285016200017d565b91505092915050565b6000819050919050565b620001db81620001c6565b82525050565b6000602082019050620001f86000830184620001d0565b92915050565b612e87806200020e6000396000f3fe608060405234801561001057600080fd5b50600436106101215760003560e01c806370a08231116100ad578063b4b5ea5711610071578063b4b5ea5714610358578063c3cda52014610388578063dd62ed3e146103a4578063e7a324dc146103d4578063f1127ed8146103f257610121565b806370a082311461027a578063782d6fe1146102aa5780637ecebe00146102da57806395d89b411461030a578063a9059cbb1461032857610121565b806323b872dd116100f457806323b872dd146101b0578063313ce567146101e0578063587cde1e146101fe5780635c19a95c1461022e5780636fcfff451461024a57610121565b806306fdde0314610126578063095ea7b31461014457806318160ddd1461017457806320606b7014610192575b600080fd5b61012e610423565b60405161013b9190612102565b60405180910390f35b61015e600480360381019061015991906121bd565b61045c565b60405161016b9190612218565b60405180910390f35b61017c6105d9565b6040516101899190612242565b60405180910390f35b61019a6105e8565b6040516101a79190612276565b60405180910390f35b6101ca60048036038101906101c59190612291565b61060c565b6040516101d79190612218565b60405180910390f35b6101e861087e565b6040516101f59190612300565b60405180910390f35b6102186004803603810190610213919061231b565b610883565b6040516102259190612357565b60405180910390f35b6102486004803603810190610243919061231b565b6108b6565b005b610264600480360381019061025f919061231b565b6108c3565b6040516102719190612391565b60405180910390f35b610294600480360381019061028f919061231b565b6108e6565b6040516102a19190612242565b60405180910390f35b6102c460048036038101906102bf91906121bd565b610955565b6040516102d191906123d3565b60405180910390f35b6102f460048036038101906102ef919061231b565b610d8e565b6040516103019190612242565b60405180910390f35b610312610da6565b60405161031f9190612102565b60405180910390f35b610342600480360381019061033d91906121bd565b610ddf565b60405161034f9190612218565b60405180910390f35b610372600480360381019061036d919061231b565b610e1c565b60405161037f91906123d3565b60405180910390f35b6103a2600480360381019061039d9190612446565b610f13565b005b6103be60048036038101906103b991906124d3565b6111d5565b6040516103cb9190612242565b60405180910390f35b6103dc611281565b6040516103e99190612276565b60405180910390f35b61040c6004803603810190610407919061253f565b6112a5565b60405161041a92919061257f565b60405180910390f35b6040518060400160405280600e81526020017f536e617073686f7420746f6b656e00000000000000000000000000000000000081525081565b6000807fffffffffffffffffffffffffffffffffffffffffffffffffffffffffffffffff830361049a576bffffffffffffffffffffffff90506104bf565b6104bc83604051806060016040528060268152602001612d7f602691396112fe565b90505b806000803373ffffffffffffffffffffffffffffffffffffffff1673ffffffffffffffffffffffffffffffffffffffff16815260200190815260200160002060008673ffffffffffffffffffffffffffffffffffffffff1673ffffffffffffffffffffffffffffffffffffffff16815260200190815260200160002060006101000a8154816bffffffffffffffffffffffff02191690836bffffffffffffffffffffffff1602179055508373ffffffffffffffffffffffffffffffffffffffff163373ffffffffffffffffffffffffffffffffffffffff167f8c5be1e5ebec7d5bd14f71427d1e84f3dd0314c0f7b2291e5b200ac8c7c3b925836040516105c691906125e3565b60405180910390a3600191505092915050565b6a084595161401484a00000081565b7f8cad95687ba82c2ce50e74f7b754645e5117c3a5bec8151c0726d5857980a86681565b60008033905060008060008773ffffffffffffffffffffffffffffffffffffffff1673ffffffffffffffffffffffffffffffffffffffff16815260200190815260200160002060008373ffffffffffffffffffffffffffffffffffffffff1673ffffffffffffffffffffffffffffffffffffffff16815260200190815260200160002060009054906101000a90046bffffffffffffffffffffffff16905060006106ce85604051806060016040528060268152602001612d7f602691396112fe565b90508673ffffffffffffffffffffffffffffffffffffffff168373ffffffffffffffffffffffffffffffffffffffff161415801561072857506bffffffffffffffffffffffff8016826bffffffffffffffffffffffff1614155b1561086557600061075283836040518060600160405280603e8152602001612d10603e913961135c565b9050806000808a73ffffffffffffffffffffffffffffffffffffffff1673ffffffffffffffffffffffffffffffffffffffff16815260200190815260200160002060008673ffffffffffffffffffffffffffffffffffffffff1673ffffffffffffffffffffffffffffffffffffffff16815260200190815260200160002060006101000a8154816bffffffffffffffffffffffff02191690836bffffffffffffffffffffffff1602179055508373ffffffffffffffffffffffffffffffffffffffff168873ffffffffffffffffffffffffffffffffffffffff167f8c5be1e5ebec7d5bd14f71427d1e84f3dd0314c0f7b2291e5b200ac8c7c3b9258360405161085b91906125e3565b60405180910390a3505b6108708787836113d6565b600193505050509392505050565b601281565b60026020528060005260406000206000915054906101000a900473ffffffffffffffffffffffffffffffffffffffff1681565b6108c033826117b5565b50565b60046020528060005260406000206000915054906101000a900463ffffffff1681565b6000600160008373ffffffffffffffffffffffffffffffffffffffff1673ffffffffffffffffffffffffffffffffffffffff16815260200190815260200160002060009054906101000a90046bffffffffffffffffffffffff166bffffffffffffffffffffffff169050919050565b6000438210610999576040517f08c379a000000000000000000000000000000000000000000000000000000000815260040161099090612670565b60405180910390fd5b6000600460008573ffffffffffffffffffffffffffffffffffffffff1673ffffffffffffffffffffffffffffffffffffffff16815260200190815260200160002060009054906101000a900463ffffffff16905060008163ffffffff1603610a05576000915050610d88565b82600360008673ffffffffffffffffffffffffffffffffffffffff1673ffffffffffffffffffffffffffffffffffffffff1681526020019081526020016000206000600184610a5491906126bf565b63ffffffff1663ffffffff16815260200190815260200160002060000160009054906101000a900463ffffffff1663ffffffff1611610b1957600360008573ffffffffffffffffffffffffffffffffffffffff1673ffffffffffffffffffffffffffffffffffffffff1681526020019081526020016000206000600183610adb91906126bf565b63ffffffff1663ffffffff16815260200190815260200160002060000160049054906101000a90046bffffffffffffffffffffffff16915050610d88565b82600360008673ffffffffffffffffffffffffffffffffffffffff1673ffffffffffffffffffffffffffffffffffffffff16815260200190815260200160002060008063ffffffff16815260200190815260200160002060000160009054906101000a900463ffffffff1663ffffffff161115610b9a576000915050610d88565b600080600183610baa91906126bf565b90505b8163ffffffff168163ffffffff161115610d0a57600060028383610bd191906126bf565b610bdb9190612726565b82610be691906126bf565b90506000600360008973ffffffffffffffffffffffffffffffffffffffff1673ffffffffffffffffffffffffffffffffffffffff16815260200190815260200160002060008363ffffffff1663ffffffff1681526020019081526020016000206040518060400160405290816000820160009054906101000a900463ffffffff1663ffffffff1663ffffffff1681526020016000820160049054906101000a90046bffffffffffffffffffffffff166bffffffffffffffffffffffff166bffffffffffffffffffffffff1681525050905086816000015163ffffffff1603610cd957806020015195505050505050610d88565b86816000015163ffffffff161015610cf357819350610d03565b600182610d0091906126bf565b92505b5050610bad565b600360008773ffffffffffffffffffffffffffffffffffffffff1673ffffffffffffffffffffffffffffffffffffffff16815260200190815260200160002060008363ffffffff1663ffffffff16815260200190815260200160002060000160049054906101000a90046bffffffffffffffffffffffff1693505050505b92915050565b60056020528060005260406000206000915090505481565b6040518060400160405280600381526020017f53746e000000000000000000000000000000000000000000000000000000000081525081565b600080610e0483604051806060016040528060278152602001612e2b602791396112fe565b9050610e113385836113d6565b600191505092915050565b600080600460008473ffffffffffffffffffffffffffffffffffffffff1673ffffffffffffffffffffffffffffffffffffffff16815260200190815260200160002060009054906101000a900463ffffffff16905060008163ffffffff1611610e86576000610f0b565b600360008473ffffffffffffffffffffffffffffffffffffffff1673ffffffffffffffffffffffffffffffffffffffff1681526020019081526020016000206000600183610ed491906126bf565b63ffffffff1663ffffffff16815260200190815260200160002060000160049054906101000a90046bffffffffffffffffffffffff165b915050919050565b60007f8cad95687ba82c2ce50e74f7b754645e5117c3a5bec8151c0726d5857980a8666040518060400160405280600e81526020017f536e617073686f7420746f6b656e00000000000000000000000000000000000081525080519060200120610f7b611975565b30604051602001610f8f9493929190612757565b60405160208183030381529060405280519060200120905060007fe48329057bfd03d55e49b547132e39cffd9c1820ad7b9d4c5307691425d15adf888888604051602001610fe0949392919061279c565b6040516020818303038152906040528051906020012090506000828260405160200161100d929190612859565b60405160208183030381529060405280519060200120905060006001828888886040516000815260200160405260405161104a9493929190612890565b6020604051602081039080840390855afa15801561106c573d6000803e3d6000fd5b505050602060405103519050600073ffffffffffffffffffffffffffffffffffffffff168173ffffffffffffffffffffffffffffffffffffffff16036110e7576040517f08c379a00000000000000000000000000000000000000000000000000000000081526004016110de90612947565b60405180910390fd5b600560008273ffffffffffffffffffffffffffffffffffffffff1673ffffffffffffffffffffffffffffffffffffffff168152602001908152602001600020600081548092919061113790612967565b91905055891461117c576040517f08c379a000000000000000000000000000000000000000000000000000000000815260040161117390612a21565b60405180910390fd5b874211156111bf576040517f08c379a00000000000000000000000000000000000000000000000000000000081526004016111b690612ab3565b60405180910390fd5b6111c9818b6117b5565b50505050505050505050565b60008060008473ffffffffffffffffffffffffffffffffffffffff1673ffffffffffffffffffffffffffffffffffffffff16815260200190815260200160002060008373ffffffffffffffffffffffffffffffffffffffff1673ffffffffffffffffffffffffffffffffffffffff16815260200190815260200160002060009054906101000a90046bffffffffffffffffffffffff166bffffffffffffffffffffffff16905092915050565b7fe48329057bfd03d55e49b547132e39cffd9c1820ad7b9d4c5307691425d15adf81565b6003602052816000526040600020602052806000526040600020600091509150508060000160009054906101000a900463ffffffff16908060000160049054906101000a90046bffffffffffffffffffffffff16905082565b60006c0100000000000000000000000083108290611352576040517f08c379a00000000000000000000000000000000000000000000000000000000081526004016113499190612102565b60405180910390fd5b5082905092915050565b6000836bffffffffffffffffffffffff16836bffffffffffffffffffffffff16111582906113c0576040517f08c379a00000000000000000000000000000000000000000000000000000000081526004016113b79190612102565b60405180910390fd5b5082846113cd9190612ad3565b90509392505050565b600073ffffffffffffffffffffffffffffffffffffffff168373ffffffffffffffffffffffffffffffffffffffff1603611445576040517f08c379a000000000000000000000000000000000000000000000000000000000815260040161143c90612b85565b60405180910390fd5b600073ffffffffffffffffffffffffffffffffffffffff168273ffffffffffffffffffffffffffffffffffffffff16036114b4576040517f08c379a00000000000000000000000000000000000000000000000000000000081526004016114ab90612c17565b60405180910390fd5b61152e600160008573ffffffffffffffffffffffffffffffffffffffff1673ffffffffffffffffffffffffffffffffffffffff16815260200190815260200160002060009054906101000a90046bffffffffffffffffffffffff1682604051806060016040528060378152602001612cd96037913961135c565b600160008573ffffffffffffffffffffffffffffffffffffffff1673ffffffffffffffffffffffffffffffffffffffff16815260200190815260200160002060006101000a8154816bffffffffffffffffffffffff02191690836bffffffffffffffffffffffff160217905550611615600160008473ffffffffffffffffffffffffffffffffffffffff1673ffffffffffffffffffffffffffffffffffffffff16815260200190815260200160002060009054906101000a90046bffffffffffffffffffffffff1682604051806060016040528060318152602001612d4e60319139611982565b600160008473ffffffffffffffffffffffffffffffffffffffff1673ffffffffffffffffffffffffffffffffffffffff16815260200190815260200160002060006101000a8154816bffffffffffffffffffffffff02191690836bffffffffffffffffffffffff1602179055508173ffffffffffffffffffffffffffffffffffffffff168373ffffffffffffffffffffffffffffffffffffffff167fddf252ad1be2c89b69c2b068fc378daa952ba7f163c4a11628f55a4df523b3ef836040516116df91906125e3565b60405180910390a36117b0600260008573ffffffffffffffffffffffffffffffffffffffff1673ffffffffffffffffffffffffffffffffffffffff16815260200190815260200160002060009054906101000a900473ffffffffffffffffffffffffffffffffffffffff16600260008573ffffffffffffffffffffffffffffffffffffffff1673ffffffffffffffffffffffffffffffffffffffff16815260200190815260200160002060009054906101000a900473ffffffffffffffffffffffffffffffffffffffff1683611a01565b505050565b6000600260008473ffffffffffffffffffffffffffffffffffffffff1673ffffffffffffffffffffffffffffffffffffffff16815260200190815260200160002060009054906101000a900473ffffffffffffffffffffffffffffffffffffffff1690506000600160008573ffffffffffffffffffffffffffffffffffffffff1673ffffffffffffffffffffffffffffffffffffffff16815260200190815260200160002060009054906101000a90046bffffffffffffffffffffffff16905082600260008673ffffffffffffffffffffffffffffffffffffffff1673ffffffffffffffffffffffffffffffffffffffff16815260200190815260200160002060006101000a81548173ffffffffffffffffffffffffffffffffffffffff021916908373ffffffffffffffffffffffffffffffffffffffff1602179055508273ffffffffffffffffffffffffffffffffffffffff168273ffffffffffffffffffffffffffffffffffffffff168573ffffffffffffffffffffffffffffffffffffffff167f3134e8a2e6d97e929a7e54011ea5485d7d196dd5f0ba4d4ef95803e8e3fc257f60405160405180910390a461196f828483611a01565b50505050565b6000804690508091505090565b60008083856119919190612c37565b9050846bffffffffffffffffffffffff16816bffffffffffffffffffffffff16101583906119f5576040517f08c379a00000000000000000000000000000000000000000000000000000000081526004016119ec9190612102565b60405180910390fd5b50809150509392505050565b8173ffffffffffffffffffffffffffffffffffffffff168373ffffffffffffffffffffffffffffffffffffffff1614158015611a4b57506000816bffffffffffffffffffffffff16115b15611d0957600073ffffffffffffffffffffffffffffffffffffffff168373ffffffffffffffffffffffffffffffffffffffff1614611bac576000600460008573ffffffffffffffffffffffffffffffffffffffff1673ffffffffffffffffffffffffffffffffffffffff16815260200190815260200160002060009054906101000a900463ffffffff1690506000808263ffffffff1611611aee576000611b73565b600360008673ffffffffffffffffffffffffffffffffffffffff1673ffffffffffffffffffffffffffffffffffffffff1681526020019081526020016000206000600184611b3c91906126bf565b63ffffffff1663ffffffff16815260200190815260200160002060000160049054906101000a90046bffffffffffffffffffffffff165b90506000611b9a8285604051806060016040528060298152602001612dda6029913961135c565b9050611ba886848484611d0e565b5050505b600073ffffffffffffffffffffffffffffffffffffffff168273ffffffffffffffffffffffffffffffffffffffff1614611d08576000600460008473ffffffffffffffffffffffffffffffffffffffff1673ffffffffffffffffffffffffffffffffffffffff16815260200190815260200160002060009054906101000a900463ffffffff1690506000808263ffffffff1611611c4a576000611ccf565b600360008573ffffffffffffffffffffffffffffffffffffffff1673ffffffffffffffffffffffffffffffffffffffff1681526020019081526020016000206000600184611c9891906126bf565b63ffffffff1663ffffffff16815260200190815260200160002060000160049054906101000a90046bffffffffffffffffffffffff165b90506000611cf68285604051806060016040528060288152602001612e0360289139611982565b9050611d0485848484611d0e565b5050505b5b505050565b6000611d3243604051806060016040528060358152602001612da56035913961201c565b905060008463ffffffff16118015611dd057508063ffffffff16600360008773ffffffffffffffffffffffffffffffffffffffff1673ffffffffffffffffffffffffffffffffffffffff1681526020019081526020016000206000600187611d9a91906126bf565b63ffffffff1663ffffffff16815260200190815260200160002060000160009054906101000a900463ffffffff1663ffffffff16145b15611e745781600360008773ffffffffffffffffffffffffffffffffffffffff1673ffffffffffffffffffffffffffffffffffffffff1681526020019081526020016000206000600187611e2491906126bf565b63ffffffff1663ffffffff16815260200190815260200160002060000160046101000a8154816bffffffffffffffffffffffff02191690836bffffffffffffffffffffffff160217905550611fc5565b60405180604001604052808263ffffffff168152602001836bffffffffffffffffffffffff16815250600360008773ffffffffffffffffffffffffffffffffffffffff1673ffffffffffffffffffffffffffffffffffffffff16815260200190815260200160002060008663ffffffff1663ffffffff16815260200190815260200160002060008201518160000160006101000a81548163ffffffff021916908363ffffffff16021790555060208201518160000160046101000a8154816bffffffffffffffffffffffff02191690836bffffffffffffffffffffffff160217905550905050600184611f679190612c77565b600460008773ffffffffffffffffffffffffffffffffffffffff1673ffffffffffffffffffffffffffffffffffffffff16815260200190815260200160002060006101000a81548163ffffffff021916908363ffffffff1602179055505b8473ffffffffffffffffffffffffffffffffffffffff167fdec2bacdd2f05b59de34da9b523dff8be42e5e38e818c82fdb0bae774387a724848460405161200d929190612caf565b60405180910390a25050505050565b600064010000000083108290612068576040517f08c379a000000000000000000000000000000000000000000000000000000000815260040161205f9190612102565b60405180910390fd5b5082905092915050565b600081519050919050565b600082825260208201905092915050565b60005b838110156120ac578082015181840152602081019050612091565b60008484015250505050565b6000601f19601f8301169050919050565b60006120d482612072565b6120de818561207d565b93506120ee81856020860161208e565b6120f7816120b8565b840191505092915050565b6000602082019050818103600083015261211c81846120c9565b905092915050565b600080fd5b600073ffffffffffffffffffffffffffffffffffffffff82169050919050565b600061215482612129565b9050919050565b61216481612149565b811461216f57600080fd5b50565b6000813590506121818161215b565b92915050565b6000819050919050565b61219a81612187565b81146121a557600080fd5b50565b6000813590506121b781612191565b92915050565b600080604083850312156121d4576121d3612124565b5b60006121e285828601612172565b92505060206121f3858286016121a8565b9150509250929050565b60008115159050919050565b612212816121fd565b82525050565b600060208201905061222d6000830184612209565b92915050565b61223c81612187565b82525050565b60006020820190506122576000830184612233565b92915050565b6000819050919050565b6122708161225d565b82525050565b600060208201905061228b6000830184612267565b92915050565b6000806000606084860312156122aa576122a9612124565b5b60006122b886828701612172565b93505060206122c986828701612172565b92505060406122da868287016121a8565b9150509250925092565b600060ff82169050919050565b6122fa816122e4565b82525050565b600060208201905061231560008301846122f1565b92915050565b60006020828403121561233157612330612124565b5b600061233f84828501612172565b91505092915050565b61235181612149565b82525050565b600060208201905061236c6000830184612348565b92915050565b600063ffffffff82169050919050565b61238b81612372565b82525050565b60006020820190506123a66000830184612382565b92915050565b60006bffffffffffffffffffffffff82169050919050565b6123cd816123ac565b82525050565b60006020820190506123e860008301846123c4565b92915050565b6123f7816122e4565b811461240257600080fd5b50565b600081359050612414816123ee565b92915050565b6124238161225d565b811461242e57600080fd5b50565b6000813590506124408161241a565b92915050565b60008060008060008060c0878903121561246357612462612124565b5b600061247189828a01612172565b965050602061248289828a016121a8565b955050604061249389828a016121a8565b94505060606124a489828a01612405565b93505060806124b589828a01612431565b92505060a06124c689828a01612431565b9150509295509295509295565b600080604083850312156124ea576124e9612124565b5b60006124f885828601612172565b925050602061250985828601612172565b9150509250929050565b61251c81612372565b811461252757600080fd5b50565b60008135905061253981612513565b92915050565b6000806040838503121561255657612555612124565b5b600061256485828601612172565b92505060206125758582860161252a565b9150509250929050565b60006040820190506125946000830185612382565b6125a160208301846123c4565b9392505050565b6000819050919050565b60006125cd6125c86125c3846123ac565b6125a8565b612187565b9050919050565b6125dd816125b2565b82525050565b60006020820190506125f860008301846125d4565b92915050565b7f546f6b656e3a3a6765745072696f72566f7465733a206e6f742079657420646560008201527f7465726d696e6564000000000000000000000000000000000000000000000000602082015250565b600061265a60288361207d565b9150612665826125fe565b604082019050919050565b600060208201905081810360008301526126898161264d565b9050919050565b7f4e487b7100000000000000000000000000000000000000000000000000000000600052601160045260246000fd5b60006126ca82612372565b91506126d583612372565b9250828203905063ffffffff8111156126f1576126f0612690565b5b92915050565b7f4e487b7100000000000000000000000000000000000000000000000000000000600052601260045260246000fd5b600061273182612372565b915061273c83612372565b92508261274c5761274b6126f7565b5b828204905092915050565b600060808201905061276c6000830187612267565b6127796020830186612267565b6127866040830185612233565b6127936060830184612348565b95945050505050565b60006080820190506127b16000830187612267565b6127be6020830186612348565b6127cb6040830185612233565b6127d86060830184612233565b95945050505050565b600081905092915050565b7f1901000000000000000000000000000000000000000000000000000000000000600082015250565b60006128226002836127e1565b915061282d826127ec565b600282019050919050565b6000819050919050565b61285361284e8261225d565b612838565b82525050565b600061286482612815565b91506128708285612842565b6020820191506128808284612842565b6020820191508190509392505050565b60006080820190506128a56000830187612267565b6128b260208301866122f1565b6128bf6040830185612267565b6128cc6060830184612267565b95945050505050565b7f546f6b656e3a3a64656c656761746542795369673a20696e76616c696420736960008201527f676e617475726500000000000000000000000000000000000000000000000000602082015250565b600061293160278361207d565b915061293c826128d5565b604082019050919050565b6000602082019050818103600083015261296081612924565b9050919050565b600061297282612187565b91507fffffffffffffffffffffffffffffffffffffffffffffffffffffffffffffffff82036129a4576129a3612690565b5b600182019050919050565b7f546f6b656e3a3a64656c656761746542795369673a20696e76616c6964206e6f60008201527f6e63650000000000000000000000000000000000000000000000000000000000602082015250565b6000612a0b60238361207d565b9150612a16826129af565b604082019050919050565b60006020820190508181036000830152612a3a816129fe565b9050919050565b7f546f6b656e3a3a64656c656761746542795369673a207369676e61747572652060008201527f6578706972656400000000000000000000000000000000000000000000000000602082015250565b6000612a9d60278361207d565b9150612aa882612a41565b604082019050919050565b60006020820190508181036000830152612acc81612a90565b9050919050565b6000612ade826123ac565b9150612ae9836123ac565b925082820390506bffffffffffffffffffffffff811115612b0d57612b0c612690565b5b92915050565b7f546f6b656e3a3a5f7472616e73666572546f6b656e733a2063616e6e6f74207460008201527f72616e736665722066726f6d20746865207a65726f2061646472657373000000602082015250565b6000612b6f603d8361207d565b9150612b7a82612b13565b604082019050919050565b60006020820190508181036000830152612b9e81612b62565b9050919050565b7f546f6b656e3a3a5f7472616e73666572546f6b656e733a2063616e6e6f74207460008201527f72616e7366657220746f20746865207a65726f20616464726573730000000000602082015250565b6000612c01603b8361207d565b9150612c0c82612ba5565b604082019050919050565b60006020820190508181036000830152612c3081612bf4565b9050919050565b6000612c42826123ac565b9150612c4d836123ac565b925082820190506bffffffffffffffffffffffff811115612c7157612c70612690565b5b92915050565b6000612c8282612372565b9150612c8d83612372565b9250828201905063ffffffff811115612ca957612ca8612690565b5b92915050565b6000604082019050612cc460008301856125d4565b612cd160208301846125d4565b939250505056fe546f6b656e3a3a5f7472616e73666572546f6b656e733a207472616e7366657220616d6f756e7420657863656564732062616c616e6365546f6b656e3a3a7472616e7366657246726f6d3a207472616e7366657220616d6f756e742065786365656473207370656e64657220616c6c6f77616e6365546f6b656e3a3a5f7472616e73666572546f6b656e733a207472616e7366657220616d6f756e74206f766572666c6f7773546f6b656e3a3a617070726f76653a20616d6f756e7420657863656564732039362062697473546f6b656e3a3a5f7772697465436865636b706f696e743a20626c6f636b206e756d62657220657863656564732033322062697473546f6b656e3a3a5f6d6f7665566f7465733a20766f746520616d6f756e7420756e646572666c6f7773546f6b656e3a3a5f6d6f7665566f7465733a20766f746520616d6f756e74206f766572666c6f7773546f6b656e3a3a7472616e736665723a20616d6f756e7420657863656564732039362062697473a26469706673582212202e914bdbdbbf8669abd52e1be443d5619676e4849f4205848c30534e40c4be4564736f6c63430008110033",
  "linkReferences": {},
  "deployedLinkReferences": {}
}