{
  "_format": "hh-sol-artifact-1",
  "contractName": "Voting",
  "sourceName": "contracts/Voting.sol",
  "abi": [
    {
      "inputs": [
        {
          "internalType": "address",
          "name": "_voteVerifier",
          "type": "address"
        },
        {
          "internalType": "address",
          "name": "_caculatorVerifier",
          "type": "address"
        },
        {
          "internalType": "address",
          "name": "_curve",
          "type": "address"
        },
        {
          "internalType": "address",
          "name": "_token",
          "type": "address"
        }
      ],
      "stateMutability": "nonpayable",
      "type": "constructor"
    },
    {
      "anonymous": false,
      "inputs": [
        {
          "indexed": true,
          "internalType": "uint256",
          "name": "pollCount",
          "type": "uint256"
        },
        {
          "indexed": true,
          "internalType": "uint256[2]",
          "name": "publicKey",
          "type": "uint256[2]"
        }
      ],
      "name": "CreatePoll",
      "type": "event"
    },
    {
      "inputs": [
        {
          "internalType": "uint256[2]",
          "name": "a",
          "type": "uint256[2]"
        },
        {
          "internalType": "uint256[2][2]",
          "name": "b",
          "type": "uint256[2][2]"
        },
        {
          "internalType": "uint256[2]",
          "name": "c",
          "type": "uint256[2]"
        },
        {
          "internalType": "uint256",
          "name": "pollId",
          "type": "uint256"
        },
        {
          "internalType": "uint256[2]",
          "name": "totalDecryptVote",
          "type": "uint256[2]"
        }
      ],
      "name": "closePoll",
      "outputs": [
        {
          "internalType": "bool",
          "name": "",
          "type": "bool"
        }
      ],
      "stateMutability": "nonpayable",
      "type": "function"
    },
    {
      "inputs": [
        {
          "internalType": "uint256",
          "name": "votingPeriod",
          "type": "uint256"
        },
        {
          "internalType": "uint256",
          "name": "votingDelay",
          "type": "uint256"
        },
        {
          "internalType": "uint256[2]",
          "name": "publicKey",
          "type": "uint256[2]"
        },
        {
          "internalType": "string",
          "name": "content",
          "type": "string"
        }
      ],
      "name": "createPoll",
      "outputs": [
        {
          "internalType": "uint256",
          "name": "",
          "type": "uint256"
        }
      ],
      "stateMutability": "nonpayable",
      "type": "function"
    },
    {
      "inputs": [
        {
          "internalType": "uint256",
          "name": "pollId",
          "type": "uint256"
        }
      ],
      "name": "getEncryptedVote",
      "outputs": [
        {
          "internalType": "uint256[4]",
          "name": "",
          "type": "uint256[4]"
        },
        {
          "internalType": "uint256[4]",
          "name": "",
          "type": "uint256[4]"
        }
      ],
      "stateMutability": "view",
      "type": "function"
    },
    {
      "inputs": [
        {
          "internalType": "uint256",
          "name": "pollId",
          "type": "uint256"
        }
      ],
      "name": "getPublicKey",
      "outputs": [
        {
          "internalType": "uint256[2]",
          "name": "",
          "type": "uint256[2]"
        }
      ],
      "stateMutability": "view",
      "type": "function"
    },
    {
      "inputs": [],
      "name": "pollCount",
      "outputs": [
        {
          "internalType": "uint256",
          "name": "",
          "type": "uint256"
        }
      ],
      "stateMutability": "view",
      "type": "function"
    },
    {
      "inputs": [
        {
          "internalType": "uint256",
          "name": "",
          "type": "uint256"
        }
      ],
      "name": "polls",
      "outputs": [
        {
          "internalType": "uint256",
          "name": "id",
          "type": "uint256"
        },
        {
          "internalType": "uint256",
          "name": "numberVoteYes",
          "type": "uint256"
        },
        {
          "internalType": "uint256",
          "name": "numberVoteNo",
          "type": "uint256"
        },
        {
          "internalType": "address",
          "name": "daoManager",
          "type": "address"
        },
        {
          "internalType": "uint64",
          "name": "startBlock",
          "type": "uint64"
        },
        {
          "internalType": "uint32",
          "name": "duration",
          "type": "uint32"
        },
        {
          "internalType": "uint32",
          "name": "eta",
          "type": "uint32"
        },
        {
          "internalType": "bool",
          "name": "canceled",
          "type": "bool"
        },
        {
          "internalType": "string",
          "name": "content",
          "type": "string"
        }
      ],
      "stateMutability": "view",
      "type": "function"
    },
    {
      "inputs": [
        {
          "internalType": "uint256",
          "name": "pollId",
          "type": "uint256"
        }
      ],
      "name": "state",
      "outputs": [
        {
          "internalType": "enum Voting.PollState",
          "name": "",
          "type": "uint8"
        }
      ],
      "stateMutability": "view",
      "type": "function"
    },
    {
      "inputs": [
        {
          "internalType": "uint256[2]",
          "name": "a",
          "type": "uint256[2]"
        },
        {
          "internalType": "uint256[2][2]",
          "name": "b",
          "type": "uint256[2][2]"
        },
        {
          "internalType": "uint256[2]",
          "name": "c",
          "type": "uint256[2]"
        },
        {
          "internalType": "uint256",
          "name": "pollId",
          "type": "uint256"
        },
        {
          "internalType": "uint256[4]",
          "name": "encryptedVoteYes",
          "type": "uint256[4]"
        },
        {
          "internalType": "uint256[4]",
          "name": "encryptedVoteNo",
          "type": "uint256[4]"
        }
      ],
      "name": "votePoll",
      "outputs": [
        {
          "internalType": "bool",
          "name": "",
          "type": "bool"
        }
      ],
      "stateMutability": "nonpayable",
      "type": "function"
    }
  ],
  "bytecode": "0x60806040523480156200001157600080fd5b5060405162002d6b38038062002d6b8339818101604052810190620000379190620001af565b83600260006101000a81548173ffffffffffffffffffffffffffffffffffffffff021916908373ffffffffffffffffffffffffffffffffffffffff16021790555082600360006101000a81548173ffffffffffffffffffffffffffffffffffffffff021916908373ffffffffffffffffffffffffffffffffffffffff16021790555081600460006101000a81548173ffffffffffffffffffffffffffffffffffffffff021916908373ffffffffffffffffffffffffffffffffffffffff16021790555080600560006101000a81548173ffffffffffffffffffffffffffffffffffffffff021916908373ffffffffffffffffffffffffffffffffffffffff1602179055505050505062000221565b600080fd5b600073ffffffffffffffffffffffffffffffffffffffff82169050919050565b600062000177826200014a565b9050919050565b62000189816200016a565b81146200019557600080fd5b50565b600081519050620001a9816200017e565b92915050565b60008060008060808587031215620001cc57620001cb62000145565b5b6000620001dc8782880162000198565b9450506020620001ef8782880162000198565b9350506040620002028782880162000198565b9250506060620002158782880162000198565b91505092959194509250565b612b3a80620002316000396000f3fe608060405234801561001057600080fd5b50600436106100885760003560e01c806387076ae51161005b57806387076ae51461014d57806388c50c761461017d5780639207891d146101ae578063ac2f0074146101cc57610088565b80631c564d711461008d5780633e4f49e6146100bd5780634140b553146100ed57806375d2c1ce1461011d575b600080fd5b6100a760048036038101906100a29190611690565b610204565b6040516100b49190611727565b60405180910390f35b6100d760048036038101906100d29190611742565b61042d565b6040516100e491906117e6565b60405180910390f35b61010760048036038101906101029190611aa0565b61058d565b6040516101149190611b4c565b60405180910390f35b61013760048036038101906101329190611742565b610f22565b6040516101449190611c12565b60405180910390f35b61016760048036038101906101629190611c2d565b610f83565b6040516101749190611b4c565b60405180910390f35b61019760048036038101906101929190611742565b611299565b6040516101a5929190611d2f565b60405180910390f35b6101b661135c565b6040516101c39190611727565b60405180910390f35b6101e660048036038101906101e19190611742565b611362565b6040516101fb99989796959493929190611e5b565b60405180910390f35b600080600081548092919061021890611f1e565b9190505550600060016000805481526020019081526020016000209050600086436102439190611f66565b905060008890506000548360000181905550600083600e0160006101000a81548163ffffffff021916908363ffffffff1602179055508183600d0160146101000a81548167ffffffffffffffff021916908367ffffffffffffffff1602179055508083600d01601c6101000a81548163ffffffff021916908363ffffffff16021790555086836001019060026102da929190611499565b506040518060800160405280600060ff168152602001600160ff168152602001600060ff168152602001600160ff168152508360030190600461031e9291906114d9565b506040518060800160405280600060ff168152602001600160ff168152602001600060ff168152602001600160ff16815250836007019060046103629291906114d9565b503383600d0160006101000a81548173ffffffffffffffffffffffffffffffffffffffff021916908373ffffffffffffffffffffffffffffffffffffffff160217905550600083600e0160046101000a81548160ff021916908315150217905550858584600f0191826103d69291906121b1565b50866040516103e5919061229a565b60405180910390206000547fdd7cb56834da1202f1fe35539963fed3c2c0d445112cfbd4440ac97b91ff245660405160405180910390a3600054935050505095945050505050565b600080600160008481526020019081526020016000209050600081600d0160149054906101000a900467ffffffffffffffff1667ffffffffffffffff16116104aa576040517f08c379a00000000000000000000000000000000000000000000000000000000081526004016104a190612327565b60405180910390fd5b80600e0160049054906101000a900460ff16156104cb576003915050610588565b80600d0160149054906101000a900467ffffffffffffffff1667ffffffffffffffff1643116104fe576000915050610588565b80600d01601c9054906101000a900463ffffffff1663ffffffff1681600d0160149054906101000a900467ffffffffffffffff1661053c9190612347565b67ffffffffffffffff164311610556576001915050610588565b600081600e0160009054906101000a900463ffffffff1663ffffffff1603610582576004915050610588565b60029150505b919050565b6000600160048111156105a3576105a261176f565b5b6105ac8561042d565b60048111156105be576105bd61176f565b5b146105fe576040517f08c379a00000000000000000000000000000000000000000000000000000000081526004016105f5906123f5565b60405180910390fd5b6000339050600060016000878152602001908152602001600020905060008160100160008473ffffffffffffffffffffffffffffffffffffffff1673ffffffffffffffffffffffffffffffffffffffff1681526020019081526020016000209050600015158160000160009054906101000a900460ff161515146106b7576040517f08c379a00000000000000000000000000000000000000000000000000000000081526004016106ae90612487565b60405180910390fd5b6000600560009054906101000a900473ffffffffffffffffffffffffffffffffffffffff1673ffffffffffffffffffffffffffffffffffffffff1663782d6fe18585600d0160149054906101000a900467ffffffffffffffff166040518363ffffffff1660e01b815260040161072e9291906124d8565b602060405180830381865afa15801561074b573d6000803e3d6000fd5b505050506040513d601f19601f8201168201806040525081019061076f9190612545565b6bffffffffffffffffffffffff169050600260009054906101000a900473ffffffffffffffffffffffffffffffffffffffff1673ffffffffffffffffffffffffffffffffffffffff1663b9c6ea878c8c8c6040518061016001604052808d6000600481106107e0576107df612572565b5b602002015181526020018d6001600481106107fe576107fd612572565b5b602002015181526020018d60026004811061081c5761081b612572565b5b602002015181526020018d60036004811061083a57610839612572565b5b602002015181526020018c60006004811061085857610857612572565b5b602002015181526020018c60016004811061087657610875612572565b5b602002015181526020018c60026004811061089457610893612572565b5b602002015181526020018c6003600481106108b2576108b1612572565b5b60200201518152602001896001016000600281106108d3576108d2612572565b5b01548152602001896001016001600281106108f1576108f0612572565b5b01548152602001878152506040518563ffffffff1660e01b815260040161091b9493929190612723565b602060405180830381865afa158015610938573d6000803e3d6000fd5b505050506040513d601f19601f8201168201806040525081019061095c9190612796565b61099b576040517f08c379a000000000000000000000000000000000000000000000000000000000815260040161099290612835565b60405180910390fd5b600460009054906101000a900473ffffffffffffffffffffffffffffffffffffffff1673ffffffffffffffffffffffffffffffffffffffff1663212aba38846003016000600481106109f0576109ef612572565b5b015485600301600160048110610a0957610a08612572565b5b01548a600060048110610a1f57610a1e612572565b5b60200201518b600160048110610a3857610a37612572565b5b60200201516040518563ffffffff1660e01b8152600401610a5c9493929190612855565b6040805180830381865afa158015610a78573d6000803e3d6000fd5b505050506040513d601f19601f82011682018060405250810190610a9c91906128af565b84600301600060048110610ab357610ab2612572565b5b01600086600301600160048110610acd57610acc612572565b5b016000849190505583919050555050600460009054906101000a900473ffffffffffffffffffffffffffffffffffffffff1673ffffffffffffffffffffffffffffffffffffffff1663212aba3884600301600260048110610b3157610b30612572565b5b015485600301600360048110610b4a57610b49612572565b5b01548a600260048110610b6057610b5f612572565b5b60200201518b600360048110610b7957610b78612572565b5b60200201516040518563ffffffff1660e01b8152600401610b9d9493929190612855565b6040805180830381865afa158015610bb9573d6000803e3d6000fd5b505050506040513d601f19601f82011682018060405250810190610bdd91906128af565b84600301600260048110610bf457610bf3612572565b5b01600086600301600360048110610c0e57610c0d612572565b5b016000849190505583919050555050600460009054906101000a900473ffffffffffffffffffffffffffffffffffffffff1673ffffffffffffffffffffffffffffffffffffffff1663212aba3884600701600060048110610c7257610c71612572565b5b015485600701600160048110610c8b57610c8a612572565b5b015489600060048110610ca157610ca0612572565b5b60200201518a600160048110610cba57610cb9612572565b5b60200201516040518563ffffffff1660e01b8152600401610cde9493929190612855565b6040805180830381865afa158015610cfa573d6000803e3d6000fd5b505050506040513d601f19601f82011682018060405250810190610d1e91906128af565b84600701600060048110610d3557610d34612572565b5b01600086600701600160048110610d4f57610d4e612572565b5b016000849190505583919050555050600460009054906101000a900473ffffffffffffffffffffffffffffffffffffffff1673ffffffffffffffffffffffffffffffffffffffff1663212aba3884600701600260048110610db357610db2612572565b5b015485600701600360048110610dcc57610dcb612572565b5b015489600260048110610de257610de1612572565b5b60200201518a600360048110610dfb57610dfa612572565b5b60200201516040518563ffffffff1660e01b8152600401610e1f9493929190612855565b6040805180830381865afa158015610e3b573d6000803e3d6000fd5b505050506040513d601f19601f82011682018060405250810190610e5f91906128af565b84600701600260048110610e7657610e75612572565b5b01600086600701600360048110610e9057610e8f612572565b5b01600084919050558391905055505060018260000160006101000a81548160ff0219169083151502179055508682600101906004610ecf92919061151e565b508582600501906004610ee392919061151e565b508082600901819055504282600a0160006101000a81548163ffffffff021916908363ffffffff16021790555060019450505050509695505050505050565b610f2a61155e565b60016000838152602001908152602001600020600101600280602002604051908101604052809291908260028015610f77576020028201915b815481526020019060010190808311610f63575b50505050509050919050565b6000600480811115610f9857610f9761176f565b5b610fa18461042d565b6004811115610fb357610fb261176f565b5b14610ff3576040517f08c379a0000000000000000000000000000000000000000000000000000000008152600401610fea90612987565b60405180910390fd5b6000600160008581526020019081526020016000209050600360009054906101000a900473ffffffffffffffffffffffffffffffffffffffff1673ffffffffffffffffffffffffffffffffffffffff1663f3bb70f68888886040518061014001604052808760030160006004811061106e5761106d612572565b5b015481526020018760030160016004811061108c5761108b612572565b5b01548152602001876003016002600481106110aa576110a9612572565b5b01548152602001876003016003600481106110c8576110c7612572565b5b01548152602001896000600281106110e3576110e2612572565b5b602002015181526020018760070160006004811061110457611103612572565b5b015481526020018760070160016004811061112257611121612572565b5b01548152602001876007016002600481106111405761113f612572565b5b015481526020018760070160036004811061115e5761115d612572565b5b015481526020018960016002811061117957611178612572565b5b60200201518152506040518563ffffffff1660e01b81526004016111a09493929190612a2b565b602060405180830381865afa1580156111bd573d6000803e3d6000fd5b505050506040513d601f19601f820116820180604052508101906111e19190612796565b611220576040517f08c379a000000000000000000000000000000000000000000000000000000000815260040161121790612ae4565b60405180910390fd5b60004290508082600e0160006101000a81548163ffffffff021916908363ffffffff1602179055508360006002811061125c5761125b612572565b5b602002015182600b01819055508360016002811061127d5761127c612572565b5b602002015182600c018190555060019250505095945050505050565b6112a1611580565b6112a9611580565b60016000848152602001908152602001600020600301600160008581526020019081526020016000206007018160048060200260405190810160405280929190826004801561130d576020028201915b8154815260200190600101908083116112f9575b505050505091508060048060200260405190810160405280929190826004801561134c576020028201915b815481526020019060010190808311611338575b5050505050905091509150915091565b60005481565b600160205280600052604060002060009150905080600001549080600b01549080600c01549080600d0160009054906101000a900473ffffffffffffffffffffffffffffffffffffffff169080600d0160149054906101000a900467ffffffffffffffff169080600d01601c9054906101000a900463ffffffff169080600e0160009054906101000a900463ffffffff169080600e0160049054906101000a900460ff169080600f01805461141690611fd4565b80601f016020809104026020016040519081016040528092919081815260200182805461144290611fd4565b801561148f5780601f106114645761010080835404028352916020019161148f565b820191906000526020600020905b81548152906001019060200180831161147257829003601f168201915b5050505050905089565b82600281019282156114c8579160200282015b828111156114c75782358255916020019190600101906114ac565b5b5090506114d591906115a2565b5090565b826004810192821561150d579160200282015b8281111561150c578251829060ff169055916020019190600101906114ec565b5b50905061151a91906115a2565b5090565b826004810192821561154d579160200282015b8281111561154c578251825591602001919060010190611531565b5b50905061155a91906115a2565b5090565b6040518060400160405280600290602082028036833780820191505090505090565b6040518060800160405280600490602082028036833780820191505090505090565b5b808211156115bb5760008160009055506001016115a3565b5090565b6000604051905090565b600080fd5b600080fd5b6000819050919050565b6115e6816115d3565b81146115f157600080fd5b50565b600081359050611603816115dd565b92915050565b600080fd5b60008190508260206002028201111561162a57611629611609565b5b92915050565b600080fd5b600080fd5b60008083601f8401126116505761164f611630565b5b8235905067ffffffffffffffff81111561166d5761166c611635565b5b60208301915083600182028301111561168957611688611609565b5b9250929050565b600080600080600060a086880312156116ac576116ab6115c9565b5b60006116ba888289016115f4565b95505060206116cb888289016115f4565b94505060406116dc8882890161160e565b935050608086013567ffffffffffffffff8111156116fd576116fc6115ce565b5b6117098882890161163a565b92509250509295509295909350565b611721816115d3565b82525050565b600060208201905061173c6000830184611718565b92915050565b600060208284031215611758576117576115c9565b5b6000611766848285016115f4565b91505092915050565b7f4e487b7100000000000000000000000000000000000000000000000000000000600052602160045260246000fd5b600581106117af576117ae61176f565b5b50565b60008190506117c08261179e565b919050565b60006117d0826117b2565b9050919050565b6117e0816117c5565b82525050565b60006020820190506117fb60008301846117d7565b92915050565b6000601f19601f8301169050919050565b7f4e487b7100000000000000000000000000000000000000000000000000000000600052604160045260246000fd5b61184a82611801565b810181811067ffffffffffffffff8211171561186957611868611812565b5b80604052505050565b600061187c6115bf565b90506118888282611841565b919050565b600067ffffffffffffffff8211156118a8576118a7611812565b5b602082029050919050565b60006118c66118c18461188d565b611872565b905080602084028301858111156118e0576118df611609565b5b835b8181101561190957806118f588826115f4565b8452602084019350506020810190506118e2565b5050509392505050565b600082601f83011261192857611927611630565b5b60026119358482856118b3565b91505092915050565b600067ffffffffffffffff82111561195957611958611812565b5b602082029050919050565b60006119776119728461193e565b611872565b9050806040840283018581111561199157611990611609565b5b835b818110156119ba57806119a68882611913565b845260208401935050604081019050611993565b5050509392505050565b600082601f8301126119d9576119d8611630565b5b60026119e6848285611964565b91505092915050565b600067ffffffffffffffff821115611a0a57611a09611812565b5b602082029050919050565b6000611a28611a23846119ef565b611872565b90508060208402830185811115611a4257611a41611609565b5b835b81811015611a6b5780611a5788826115f4565b845260208401935050602081019050611a44565b5050509392505050565b600082601f830112611a8a57611a89611630565b5b6004611a97848285611a15565b91505092915050565b6000806000806000806102208789031215611abe57611abd6115c9565b5b6000611acc89828a01611913565b9650506040611add89828a016119c4565b95505060c0611aee89828a01611913565b945050610100611b0089828a016115f4565b935050610120611b1289828a01611a75565b9250506101a0611b2489828a01611a75565b9150509295509295509295565b60008115159050919050565b611b4681611b31565b82525050565b6000602082019050611b616000830184611b3d565b92915050565b600060029050919050565b600081905092915050565b6000819050919050565b611b90816115d3565b82525050565b6000611ba28383611b87565b60208301905092915050565b6000602082019050919050565b611bc481611b67565b611bce8184611b72565b9250611bd982611b7d565b8060005b83811015611c0a578151611bf18782611b96565b9650611bfc83611bae565b925050600181019050611bdd565b505050505050565b6000604082019050611c276000830184611bbb565b92915050565b60008060008060006101608688031215611c4a57611c496115c9565b5b6000611c5888828901611913565b9550506040611c69888289016119c4565b94505060c0611c7a88828901611913565b935050610100611c8c888289016115f4565b925050610120611c9e88828901611913565b9150509295509295909350565b600060049050919050565b600081905092915050565b6000819050919050565b6000602082019050919050565b611ce181611cab565b611ceb8184611cb6565b9250611cf682611cc1565b8060005b83811015611d27578151611d0e8782611b96565b9650611d1983611ccb565b925050600181019050611cfa565b505050505050565b600061010082019050611d456000830185611cd8565b611d526080830184611cd8565b9392505050565b600073ffffffffffffffffffffffffffffffffffffffff82169050919050565b6000611d8482611d59565b9050919050565b611d9481611d79565b82525050565b600067ffffffffffffffff82169050919050565b611db781611d9a565b82525050565b600063ffffffff82169050919050565b611dd681611dbd565b82525050565b600081519050919050565b600082825260208201905092915050565b60005b83811015611e16578082015181840152602081019050611dfb565b60008484015250505050565b6000611e2d82611ddc565b611e378185611de7565b9350611e47818560208601611df8565b611e5081611801565b840191505092915050565b600061012082019050611e71600083018c611718565b611e7e602083018b611718565b611e8b604083018a611718565b611e986060830189611d8b565b611ea56080830188611dae565b611eb260a0830187611dcd565b611ebf60c0830186611dcd565b611ecc60e0830185611b3d565b818103610100830152611edf8184611e22565b90509a9950505050505050505050565b7f4e487b7100000000000000000000000000000000000000000000000000000000600052601160045260246000fd5b6000611f29826115d3565b91507fffffffffffffffffffffffffffffffffffffffffffffffffffffffffffffffff8203611f5b57611f5a611eef565b5b600182019050919050565b6000611f71826115d3565b9150611f7c836115d3565b9250828201905080821115611f9457611f93611eef565b5b92915050565b600082905092915050565b7f4e487b7100000000000000000000000000000000000000000000000000000000600052602260045260246000fd5b60006002820490506001821680611fec57607f821691505b602082108103611fff57611ffe611fa5565b5b50919050565b60008190508160005260206000209050919050565b60006020601f8301049050919050565b600082821b905092915050565b6000600883026120677fffffffffffffffffffffffffffffffffffffffffffffffffffffffffffffffff8261202a565b612071868361202a565b95508019841693508086168417925050509392505050565b6000819050919050565b60006120ae6120a96120a4846115d3565b612089565b6115d3565b9050919050565b6000819050919050565b6120c883612093565b6120dc6120d4826120b5565b848454612037565b825550505050565b600090565b6120f16120e4565b6120fc8184846120bf565b505050565b5b81811015612120576121156000826120e9565b600181019050612102565b5050565b601f8211156121655761213681612005565b61213f8461201a565b8101602085101561214e578190505b61216261215a8561201a565b830182612101565b50505b505050565b600082821c905092915050565b60006121886000198460080261216a565b1980831691505092915050565b60006121a18383612177565b9150826002028217905092915050565b6121bb8383611f9a565b67ffffffffffffffff8111156121d4576121d3611812565b5b6121de8254611fd4565b6121e9828285612124565b6000601f8311600181146122185760008415612206578287013590505b6122108582612195565b865550612278565b601f19841661222686612005565b60005b8281101561224e57848901358255600182019150602085019450602081019050612229565b8683101561226b5784890135612267601f891682612177565b8355505b6001600288020188555050505b50505050505050565b82818337505050565b61229660408383612281565b5050565b60006122a6828461228a565b60408201915081905092915050565b7f507269766174652d566f74696e673a3a73746174653a20706f6c6c206e6f742060008201527f657869737465642e000000000000000000000000000000000000000000000000602082015250565b6000612311602883611de7565b915061231c826122b5565b604082019050919050565b6000602082019050818103600083015261234081612304565b9050919050565b600061235282611d9a565b915061235d83611d9a565b9250828201905067ffffffffffffffff81111561237d5761237c611eef565b5b92915050565b7f507269766174652d566f74696e673a3a766f746520706f6c6c3a20706f6c6c2060008201527f697320636c6f7365642e00000000000000000000000000000000000000000000602082015250565b60006123df602a83611de7565b91506123ea82612383565b604082019050919050565b6000602082019050818103600083015261240e816123d2565b9050919050565b7f507269766174652d566f74696e673a3a766f746520706f6c6c3a20766f74657260008201527f20616c726561647920766f746564000000000000000000000000000000000000602082015250565b6000612471602e83611de7565b915061247c82612415565b604082019050919050565b600060208201905081810360008301526124a081612464565b9050919050565b60006124c26124bd6124b884611d9a565b612089565b6115d3565b9050919050565b6124d2816124a7565b82525050565b60006040820190506124ed6000830185611d8b565b6124fa60208301846124c9565b9392505050565b60006bffffffffffffffffffffffff82169050919050565b61252281612501565b811461252d57600080fd5b50565b60008151905061253f81612519565b92915050565b60006020828403121561255b5761255a6115c9565b5b600061256984828501612530565b91505092915050565b7f4e487b7100000000000000000000000000000000000000000000000000000000600052603260045260246000fd5b600060029050919050565b600081905092915050565b6000819050919050565b600081905092915050565b6125d581611b67565b6125df81846125c1565b92506125ea82611b7d565b8060005b8381101561261b5781516126028782611b96565b965061260d83611bae565b9250506001810190506125ee565b505050505050565b600061262f83836125cc565b60408301905092915050565b6000602082019050919050565b612651816125a1565b61265b81846125ac565b9250612666826125b7565b8060005b8381101561269757815161267e8782612623565b96506126898361263b565b92505060018101905061266a565b505050505050565b6000600b9050919050565b600081905092915050565b6000819050919050565b6000602082019050919050565b6126d58161269f565b6126df81846126aa565b92506126ea826126b5565b8060005b8381101561271b5781516127028782611b96565b965061270d836126bf565b9250506001810190506126ee565b505050505050565b6000610260820190506127396000830187611bbb565b6127466040830186612648565b61275360c0830185611bbb565b6127616101008301846126cc565b95945050505050565b61277381611b31565b811461277e57600080fd5b50565b6000815190506127908161276a565b92915050565b6000602082840312156127ac576127ab6115c9565b5b60006127ba84828501612781565b91505092915050565b7f507269766174652d566f74696e673a3a766f746520706f6c6c3a2070726f6f6660008201527f20697320696e636f726563740000000000000000000000000000000000000000602082015250565b600061281f602c83611de7565b915061282a826127c3565b604082019050919050565b6000602082019050818103600083015261284e81612812565b9050919050565b600060808201905061286a6000830187611718565b6128776020830186611718565b6128846040830185611718565b6128916060830184611718565b95945050505050565b6000815190506128a9816115dd565b92915050565b600080604083850312156128c6576128c56115c9565b5b60006128d48582860161289a565b92505060206128e58582860161289a565b9150509250929050565b7f507269766174652d566f74696e673a3a636c6f736520706f6c6c3a20706f6c6c60008201527f206f6e6c792063616e20626520636c6f7365642069662069742069732073756360208201527f6365656465640000000000000000000000000000000000000000000000000000604082015250565b6000612971604683611de7565b915061297c826128ef565b606082019050919050565b600060208201905081810360008301526129a081612964565b9050919050565b6000600a9050919050565b600081905092915050565b6000819050919050565b6000602082019050919050565b6129dd816129a7565b6129e781846129b2565b92506129f2826129bd565b8060005b83811015612a23578151612a0a8782611b96565b9650612a15836129c7565b9250506001810190506129f6565b505050505050565b600061024082019050612a416000830187611bbb565b612a4e6040830186612648565b612a5b60c0830185611bbb565b612a696101008301846129d4565b95945050505050565b7f507269766174652d566f74696e673a3a636c6f736520706f6c6c3a2070726f6f60008201527f6620697320696e636f7265637400000000000000000000000000000000000000602082015250565b6000612ace602d83611de7565b9150612ad982612a72565b604082019050919050565b60006020820190508181036000830152612afd81612ac1565b905091905056fea26469706673582212207213a8b9a0d0286bfdc073261e69d402afb4bbcc0d1dd07e612f5f6ae51005a464736f6c63430008110033",
  "linkReferences": {},
  "deployedLinkReferences": {}
}