{
  "_format": "hh-sol-artifact-1",
  "contractName": "Voting",
  "sourceName": "contracts/Voting.sol",
  "abi": [
    {
      "inputs": [
        {
          "internalType": "address",
          "name": "_voteVerifier",
          "type": "address"
        },
        {
          "internalType": "address",
          "name": "_caculatorVerifier",
          "type": "address"
        },
        {
          "internalType": "address",
          "name": "_curve",
          "type": "address"
        },
        {
          "internalType": "address",
          "name": "_token",
          "type": "address"
        }
      ],
      "stateMutability": "nonpayable",
      "type": "constructor"
    },
    {
      "anonymous": false,
      "inputs": [
        {
          "indexed": true,
          "internalType": "uint256",
          "name": "pollCount",
          "type": "uint256"
        },
        {
          "indexed": true,
          "internalType": "uint256[2]",
          "name": "publicKey",
          "type": "uint256[2]"
        }
      ],
      "name": "CreatePoll",
      "type": "event"
    },
    {
      "inputs": [
        {
          "internalType": "uint256[2]",
          "name": "a",
          "type": "uint256[2]"
        },
        {
          "internalType": "uint256[2][2]",
          "name": "b",
          "type": "uint256[2][2]"
        },
        {
          "internalType": "uint256[2]",
          "name": "c",
          "type": "uint256[2]"
        },
        {
          "internalType": "uint256",
          "name": "pollId",
          "type": "uint256"
        },
        {
          "internalType": "uint256[2]",
          "name": "totalDecryptVote",
          "type": "uint256[2]"
        }
      ],
      "name": "closePoll",
      "outputs": [
        {
          "internalType": "bool",
          "name": "",
          "type": "bool"
        }
      ],
      "stateMutability": "nonpayable",
      "type": "function"
    },
    {
      "inputs": [
        {
          "internalType": "uint256",
          "name": "votingPeriod",
          "type": "uint256"
        },
        {
          "internalType": "uint256",
          "name": "votingDelay",
          "type": "uint256"
        },
        {
          "internalType": "uint256[2]",
          "name": "publicKey",
          "type": "uint256[2]"
        },
        {
          "internalType": "string",
          "name": "content",
          "type": "string"
        }
      ],
      "name": "createPoll",
      "outputs": [
        {
          "internalType": "uint256",
          "name": "",
          "type": "uint256"
        }
      ],
      "stateMutability": "nonpayable",
      "type": "function"
    },
    {
      "inputs": [
        {
          "internalType": "uint256",
          "name": "pollId",
          "type": "uint256"
        }
      ],
      "name": "getEncryptedVote",
      "outputs": [
        {
          "internalType": "uint256[4]",
          "name": "",
          "type": "uint256[4]"
        },
        {
          "internalType": "uint256[4]",
          "name": "",
          "type": "uint256[4]"
        }
      ],
      "stateMutability": "view",
      "type": "function"
    },
    {
      "inputs": [
        {
          "internalType": "uint256",
          "name": "pollId",
          "type": "uint256"
        }
      ],
      "name": "getPublicKey",
      "outputs": [
        {
          "internalType": "uint256[2]",
          "name": "",
          "type": "uint256[2]"
        }
      ],
      "stateMutability": "view",
      "type": "function"
    },
    {
      "inputs": [],
      "name": "pollCount",
      "outputs": [
        {
          "internalType": "uint256",
          "name": "",
          "type": "uint256"
        }
      ],
      "stateMutability": "view",
      "type": "function"
    },
    {
      "inputs": [
        {
          "internalType": "uint256",
          "name": "",
          "type": "uint256"
        }
      ],
      "name": "polls",
      "outputs": [
        {
          "internalType": "uint256",
          "name": "id",
          "type": "uint256"
        },
        {
          "internalType": "uint256",
          "name": "numberVoteYes",
          "type": "uint256"
        },
        {
          "internalType": "uint256",
          "name": "numberVoteNo",
          "type": "uint256"
        },
        {
          "internalType": "address",
          "name": "daoManager",
          "type": "address"
        },
        {
          "internalType": "uint32",
          "name": "startTimeStamp",
          "type": "uint32"
        },
        {
          "internalType": "uint32",
          "name": "duration",
          "type": "uint32"
        },
        {
          "internalType": "uint32",
          "name": "eta",
          "type": "uint32"
        },
        {
          "internalType": "bool",
          "name": "canceled",
          "type": "bool"
        },
        {
          "internalType": "string",
          "name": "content",
          "type": "string"
        }
      ],
      "stateMutability": "view",
      "type": "function"
    },
    {
      "inputs": [
        {
          "internalType": "uint256",
          "name": "pollId",
          "type": "uint256"
        }
      ],
      "name": "state",
      "outputs": [
        {
          "internalType": "enum Voting.PollState",
          "name": "",
          "type": "uint8"
        }
      ],
      "stateMutability": "view",
      "type": "function"
    },
    {
      "inputs": [
        {
          "internalType": "uint256[2]",
          "name": "a",
          "type": "uint256[2]"
        },
        {
          "internalType": "uint256[2][2]",
          "name": "b",
          "type": "uint256[2][2]"
        },
        {
          "internalType": "uint256[2]",
          "name": "c",
          "type": "uint256[2]"
        },
        {
          "internalType": "uint256",
          "name": "pollId",
          "type": "uint256"
        },
        {
          "internalType": "uint256[4]",
          "name": "encryptedVoteYes",
          "type": "uint256[4]"
        },
        {
          "internalType": "uint256[4]",
          "name": "encryptedVoteNo",
          "type": "uint256[4]"
        }
      ],
      "name": "votePoll",
      "outputs": [
        {
          "internalType": "bool",
          "name": "",
          "type": "bool"
        }
      ],
      "stateMutability": "nonpayable",
      "type": "function"
    }
  ],
  "bytecode": "0x60806040523480156200001157600080fd5b5060405162002d1c38038062002d1c8339818101604052810190620000379190620001af565b83600260006101000a81548173ffffffffffffffffffffffffffffffffffffffff021916908373ffffffffffffffffffffffffffffffffffffffff16021790555082600360006101000a81548173ffffffffffffffffffffffffffffffffffffffff021916908373ffffffffffffffffffffffffffffffffffffffff16021790555081600460006101000a81548173ffffffffffffffffffffffffffffffffffffffff021916908373ffffffffffffffffffffffffffffffffffffffff16021790555080600560006101000a81548173ffffffffffffffffffffffffffffffffffffffff021916908373ffffffffffffffffffffffffffffffffffffffff1602179055505050505062000221565b600080fd5b600073ffffffffffffffffffffffffffffffffffffffff82169050919050565b600062000177826200014a565b9050919050565b62000189816200016a565b81146200019557600080fd5b50565b600081519050620001a9816200017e565b92915050565b60008060008060808587031215620001cc57620001cb62000145565b5b6000620001dc8782880162000198565b9450506020620001ef8782880162000198565b9350506040620002028782880162000198565b9250506060620002158782880162000198565b91505092959194509250565b612aeb80620002316000396000f3fe608060405234801561001057600080fd5b50600436106100885760003560e01c806387076ae51161005b57806387076ae51461014d57806388c50c761461017d5780639207891d146101ae578063ac2f0074146101cc57610088565b80631c564d711461008d5780633e4f49e6146100bd5780634140b553146100ed57806375d2c1ce1461011d575b600080fd5b6100a760048036038101906100a29190611699565b610204565b6040516100b49190611730565b60405180910390f35b6100d760048036038101906100d2919061174b565b610425565b6040516100e491906117ef565b60405180910390f35b61010760048036038101906101029190611aa9565b610567565b6040516101149190611b55565b60405180910390f35b6101376004803603810190610132919061174b565b610ef8565b6040516101449190611c1b565b60405180910390f35b61016760048036038101906101629190611c36565b610f59565b6040516101749190611b55565b60405180910390f35b6101976004803603810190610192919061174b565b6112a6565b6040516101a5929190611d38565b60405180910390f35b6101b6611369565b6040516101c39190611730565b60405180910390f35b6101e660048036038101906101e1919061174b565b61136f565b6040516101fb99989796959493929190611e41565b60405180910390f35b600080600081548092919061021890611f04565b9190505550600060016000805481526020019081526020016000209050600086426102439190611f4c565b905060008890506000548360000181905550600083600d01601c6101000a81548163ffffffff021916908363ffffffff1602179055508183600d0160146101000a81548163ffffffff021916908363ffffffff1602179055508083600d0160186101000a81548163ffffffff021916908363ffffffff16021790555086836001019060026102d29291906114a2565b506040518060800160405280600060ff168152602001600160ff168152602001600060ff168152602001600160ff16815250836003019060046103169291906114e2565b506040518060800160405280600060ff168152602001600160ff168152602001600060ff168152602001600160ff168152508360070190600461035a9291906114e2565b503383600d0160006101000a81548173ffffffffffffffffffffffffffffffffffffffff021916908373ffffffffffffffffffffffffffffffffffffffff160217905550600083600e0160006101000a81548160ff021916908315150217905550858584600f0191826103ce929190612197565b50866040516103dd9190612280565b60405180910390206000547fdd7cb56834da1202f1fe35539963fed3c2c0d445112cfbd4440ac97b91ff245660405160405180910390a3600054935050505095945050505050565b600080600160008481526020019081526020016000209050600081600d0160149054906101000a900463ffffffff1663ffffffff161161049a576040517f08c379a00000000000000000000000000000000000000000000000000000000081526004016104919061230d565b60405180910390fd5b80600e0160009054906101000a900460ff16156104bb576003915050610562565b80600d0160149054906101000a900463ffffffff1663ffffffff1642116104e6576000915050610562565b600081600d01601c9054906101000a900463ffffffff1663ffffffff1614610512576002915050610562565b80600d0160189054906101000a900463ffffffff1681600d0160149054906101000a900463ffffffff16610546919061232d565b63ffffffff16421161055c576001915050610562565b60049150505b919050565b60006001600481111561057d5761057c611778565b5b61058685610425565b600481111561059857610597611778565b5b146105d8576040517f08c379a00000000000000000000000000000000000000000000000000000000081526004016105cf906123d7565b60405180910390fd5b6000339050600060016000878152602001908152602001600020905060008160100160008473ffffffffffffffffffffffffffffffffffffffff1673ffffffffffffffffffffffffffffffffffffffff1681526020019081526020016000209050600015158160000160009054906101000a900460ff16151514610691576040517f08c379a000000000000000000000000000000000000000000000000000000000815260040161068890612469565b60405180910390fd5b6000600560009054906101000a900473ffffffffffffffffffffffffffffffffffffffff1673ffffffffffffffffffffffffffffffffffffffff1663dd725dc38585600d0160149054906101000a900463ffffffff166040518363ffffffff1660e01b8152600401610704929190612489565b602060405180830381865afa158015610721573d6000803e3d6000fd5b505050506040513d601f19601f8201168201806040525081019061074591906124f6565b6bffffffffffffffffffffffff169050600260009054906101000a900473ffffffffffffffffffffffffffffffffffffffff1673ffffffffffffffffffffffffffffffffffffffff1663b9c6ea878c8c8c6040518061016001604052808d6000600481106107b6576107b5612523565b5b602002015181526020018d6001600481106107d4576107d3612523565b5b602002015181526020018d6002600481106107f2576107f1612523565b5b602002015181526020018d6003600481106108105761080f612523565b5b602002015181526020018c60006004811061082e5761082d612523565b5b602002015181526020018c60016004811061084c5761084b612523565b5b602002015181526020018c60026004811061086a57610869612523565b5b602002015181526020018c60036004811061088857610887612523565b5b60200201518152602001896001016000600281106108a9576108a8612523565b5b01548152602001896001016001600281106108c7576108c6612523565b5b01548152602001878152506040518563ffffffff1660e01b81526004016108f194939291906126d4565b602060405180830381865afa15801561090e573d6000803e3d6000fd5b505050506040513d601f19601f820116820180604052508101906109329190612747565b610971576040517f08c379a0000000000000000000000000000000000000000000000000000000008152600401610968906127e6565b60405180910390fd5b600460009054906101000a900473ffffffffffffffffffffffffffffffffffffffff1673ffffffffffffffffffffffffffffffffffffffff1663212aba38846003016000600481106109c6576109c5612523565b5b0154856003016001600481106109df576109de612523565b5b01548a6000600481106109f5576109f4612523565b5b60200201518b600160048110610a0e57610a0d612523565b5b60200201516040518563ffffffff1660e01b8152600401610a329493929190612806565b6040805180830381865afa158015610a4e573d6000803e3d6000fd5b505050506040513d601f19601f82011682018060405250810190610a729190612860565b84600301600060048110610a8957610a88612523565b5b01600086600301600160048110610aa357610aa2612523565b5b016000849190505583919050555050600460009054906101000a900473ffffffffffffffffffffffffffffffffffffffff1673ffffffffffffffffffffffffffffffffffffffff1663212aba3884600301600260048110610b0757610b06612523565b5b015485600301600360048110610b2057610b1f612523565b5b01548a600260048110610b3657610b35612523565b5b60200201518b600360048110610b4f57610b4e612523565b5b60200201516040518563ffffffff1660e01b8152600401610b739493929190612806565b6040805180830381865afa158015610b8f573d6000803e3d6000fd5b505050506040513d601f19601f82011682018060405250810190610bb39190612860565b84600301600260048110610bca57610bc9612523565b5b01600086600301600360048110610be457610be3612523565b5b016000849190505583919050555050600460009054906101000a900473ffffffffffffffffffffffffffffffffffffffff1673ffffffffffffffffffffffffffffffffffffffff1663212aba3884600701600060048110610c4857610c47612523565b5b015485600701600160048110610c6157610c60612523565b5b015489600060048110610c7757610c76612523565b5b60200201518a600160048110610c9057610c8f612523565b5b60200201516040518563ffffffff1660e01b8152600401610cb49493929190612806565b6040805180830381865afa158015610cd0573d6000803e3d6000fd5b505050506040513d601f19601f82011682018060405250810190610cf49190612860565b84600701600060048110610d0b57610d0a612523565b5b01600086600701600160048110610d2557610d24612523565b5b016000849190505583919050555050600460009054906101000a900473ffffffffffffffffffffffffffffffffffffffff1673ffffffffffffffffffffffffffffffffffffffff1663212aba3884600701600260048110610d8957610d88612523565b5b015485600701600360048110610da257610da1612523565b5b015489600260048110610db857610db7612523565b5b60200201518a600360048110610dd157610dd0612523565b5b60200201516040518563ffffffff1660e01b8152600401610df59493929190612806565b6040805180830381865afa158015610e11573d6000803e3d6000fd5b505050506040513d601f19601f82011682018060405250810190610e359190612860565b84600701600260048110610e4c57610e4b612523565b5b01600086600701600360048110610e6657610e65612523565b5b01600084919050558391905055505060018260000160006101000a81548160ff0219169083151502179055508682600101906004610ea5929190611527565b508582600501906004610eb9929190611527565b508082600901819055504282600a0160006101000a81548163ffffffff021916908363ffffffff16021790555060019450505050509695505050505050565b610f00611567565b60016000838152602001908152602001600020600101600280602002604051908101604052809291908260028015610f4d576020028201915b815481526020019060010190808311610f39575b50505050509050919050565b6000600480811115610f6e57610f6d611778565b5b610f7784610425565b6004811115610f8957610f88611778565b5b1480610fc1575060016004811115610fa457610fa3611778565b5b610fad84610425565b6004811115610fbf57610fbe611778565b5b145b611000576040517f08c379a0000000000000000000000000000000000000000000000000000000008152600401610ff790612938565b60405180910390fd5b6000600160008581526020019081526020016000209050600360009054906101000a900473ffffffffffffffffffffffffffffffffffffffff1673ffffffffffffffffffffffffffffffffffffffff1663f3bb70f68888886040518061014001604052808760030160006004811061107b5761107a612523565b5b015481526020018760030160016004811061109957611098612523565b5b01548152602001876003016002600481106110b7576110b6612523565b5b01548152602001876003016003600481106110d5576110d4612523565b5b01548152602001896000600281106110f0576110ef612523565b5b602002015181526020018760070160006004811061111157611110612523565b5b015481526020018760070160016004811061112f5761112e612523565b5b015481526020018760070160026004811061114d5761114c612523565b5b015481526020018760070160036004811061116b5761116a612523565b5b015481526020018960016002811061118657611185612523565b5b60200201518152506040518563ffffffff1660e01b81526004016111ad94939291906129dc565b602060405180830381865afa1580156111ca573d6000803e3d6000fd5b505050506040513d601f19601f820116820180604052508101906111ee9190612747565b61122d576040517f08c379a000000000000000000000000000000000000000000000000000000000815260040161122490612a95565b60405180910390fd5b60004290508082600d01601c6101000a81548163ffffffff021916908363ffffffff1602179055508360006002811061126957611268612523565b5b602002015182600b01819055508360016002811061128a57611289612523565b5b602002015182600c018190555060019250505095945050505050565b6112ae611589565b6112b6611589565b60016000848152602001908152602001600020600301600160008581526020019081526020016000206007018160048060200260405190810160405280929190826004801561131a576020028201915b815481526020019060010190808311611306575b5050505050915080600480602002604051908101604052809291908260048015611359576020028201915b815481526020019060010190808311611345575b5050505050905091509150915091565b60005481565b600160205280600052604060002060009150905080600001549080600b01549080600c01549080600d0160009054906101000a900473ffffffffffffffffffffffffffffffffffffffff169080600d0160149054906101000a900463ffffffff169080600d0160189054906101000a900463ffffffff169080600d01601c9054906101000a900463ffffffff169080600e0160009054906101000a900460ff169080600f01805461141f90611fba565b80601f016020809104026020016040519081016040528092919081815260200182805461144b90611fba565b80156114985780601f1061146d57610100808354040283529160200191611498565b820191906000526020600020905b81548152906001019060200180831161147b57829003601f168201915b5050505050905089565b82600281019282156114d1579160200282015b828111156114d05782358255916020019190600101906114b5565b5b5090506114de91906115ab565b5090565b8260048101928215611516579160200282015b82811115611515578251829060ff169055916020019190600101906114f5565b5b50905061152391906115ab565b5090565b8260048101928215611556579160200282015b8281111561155557825182559160200191906001019061153a565b5b50905061156391906115ab565b5090565b6040518060400160405280600290602082028036833780820191505090505090565b6040518060800160405280600490602082028036833780820191505090505090565b5b808211156115c45760008160009055506001016115ac565b5090565b6000604051905090565b600080fd5b600080fd5b6000819050919050565b6115ef816115dc565b81146115fa57600080fd5b50565b60008135905061160c816115e6565b92915050565b600080fd5b60008190508260206002028201111561163357611632611612565b5b92915050565b600080fd5b600080fd5b60008083601f84011261165957611658611639565b5b8235905067ffffffffffffffff8111156116765761167561163e565b5b60208301915083600182028301111561169257611691611612565b5b9250929050565b600080600080600060a086880312156116b5576116b46115d2565b5b60006116c3888289016115fd565b95505060206116d4888289016115fd565b94505060406116e588828901611617565b935050608086013567ffffffffffffffff811115611706576117056115d7565b5b61171288828901611643565b92509250509295509295909350565b61172a816115dc565b82525050565b60006020820190506117456000830184611721565b92915050565b600060208284031215611761576117606115d2565b5b600061176f848285016115fd565b91505092915050565b7f4e487b7100000000000000000000000000000000000000000000000000000000600052602160045260246000fd5b600581106117b8576117b7611778565b5b50565b60008190506117c9826117a7565b919050565b60006117d9826117bb565b9050919050565b6117e9816117ce565b82525050565b600060208201905061180460008301846117e0565b92915050565b6000601f19601f8301169050919050565b7f4e487b7100000000000000000000000000000000000000000000000000000000600052604160045260246000fd5b6118538261180a565b810181811067ffffffffffffffff821117156118725761187161181b565b5b80604052505050565b60006118856115c8565b9050611891828261184a565b919050565b600067ffffffffffffffff8211156118b1576118b061181b565b5b602082029050919050565b60006118cf6118ca84611896565b61187b565b905080602084028301858111156118e9576118e8611612565b5b835b8181101561191257806118fe88826115fd565b8452602084019350506020810190506118eb565b5050509392505050565b600082601f83011261193157611930611639565b5b600261193e8482856118bc565b91505092915050565b600067ffffffffffffffff8211156119625761196161181b565b5b602082029050919050565b600061198061197b84611947565b61187b565b9050806040840283018581111561199a57611999611612565b5b835b818110156119c357806119af888261191c565b84526020840193505060408101905061199c565b5050509392505050565b600082601f8301126119e2576119e1611639565b5b60026119ef84828561196d565b91505092915050565b600067ffffffffffffffff821115611a1357611a1261181b565b5b602082029050919050565b6000611a31611a2c846119f8565b61187b565b90508060208402830185811115611a4b57611a4a611612565b5b835b81811015611a745780611a6088826115fd565b845260208401935050602081019050611a4d565b5050509392505050565b600082601f830112611a9357611a92611639565b5b6004611aa0848285611a1e565b91505092915050565b6000806000806000806102208789031215611ac757611ac66115d2565b5b6000611ad589828a0161191c565b9650506040611ae689828a016119cd565b95505060c0611af789828a0161191c565b945050610100611b0989828a016115fd565b935050610120611b1b89828a01611a7e565b9250506101a0611b2d89828a01611a7e565b9150509295509295509295565b60008115159050919050565b611b4f81611b3a565b82525050565b6000602082019050611b6a6000830184611b46565b92915050565b600060029050919050565b600081905092915050565b6000819050919050565b611b99816115dc565b82525050565b6000611bab8383611b90565b60208301905092915050565b6000602082019050919050565b611bcd81611b70565b611bd78184611b7b565b9250611be282611b86565b8060005b83811015611c13578151611bfa8782611b9f565b9650611c0583611bb7565b925050600181019050611be6565b505050505050565b6000604082019050611c306000830184611bc4565b92915050565b60008060008060006101608688031215611c5357611c526115d2565b5b6000611c618882890161191c565b9550506040611c72888289016119cd565b94505060c0611c838882890161191c565b935050610100611c95888289016115fd565b925050610120611ca78882890161191c565b9150509295509295909350565b600060049050919050565b600081905092915050565b6000819050919050565b6000602082019050919050565b611cea81611cb4565b611cf48184611cbf565b9250611cff82611cca565b8060005b83811015611d30578151611d178782611b9f565b9650611d2283611cd4565b925050600181019050611d03565b505050505050565b600061010082019050611d4e6000830185611ce1565b611d5b6080830184611ce1565b9392505050565b600073ffffffffffffffffffffffffffffffffffffffff82169050919050565b6000611d8d82611d62565b9050919050565b611d9d81611d82565b82525050565b600063ffffffff82169050919050565b611dbc81611da3565b82525050565b600081519050919050565b600082825260208201905092915050565b60005b83811015611dfc578082015181840152602081019050611de1565b60008484015250505050565b6000611e1382611dc2565b611e1d8185611dcd565b9350611e2d818560208601611dde565b611e368161180a565b840191505092915050565b600061012082019050611e57600083018c611721565b611e64602083018b611721565b611e71604083018a611721565b611e7e6060830189611d94565b611e8b6080830188611db3565b611e9860a0830187611db3565b611ea560c0830186611db3565b611eb260e0830185611b46565b818103610100830152611ec58184611e08565b90509a9950505050505050505050565b7f4e487b7100000000000000000000000000000000000000000000000000000000600052601160045260246000fd5b6000611f0f826115dc565b91507fffffffffffffffffffffffffffffffffffffffffffffffffffffffffffffffff8203611f4157611f40611ed5565b5b600182019050919050565b6000611f57826115dc565b9150611f62836115dc565b9250828201905080821115611f7a57611f79611ed5565b5b92915050565b600082905092915050565b7f4e487b7100000000000000000000000000000000000000000000000000000000600052602260045260246000fd5b60006002820490506001821680611fd257607f821691505b602082108103611fe557611fe4611f8b565b5b50919050565b60008190508160005260206000209050919050565b60006020601f8301049050919050565b600082821b905092915050565b60006008830261204d7fffffffffffffffffffffffffffffffffffffffffffffffffffffffffffffffff82612010565b6120578683612010565b95508019841693508086168417925050509392505050565b6000819050919050565b600061209461208f61208a846115dc565b61206f565b6115dc565b9050919050565b6000819050919050565b6120ae83612079565b6120c26120ba8261209b565b84845461201d565b825550505050565b600090565b6120d76120ca565b6120e28184846120a5565b505050565b5b81811015612106576120fb6000826120cf565b6001810190506120e8565b5050565b601f82111561214b5761211c81611feb565b61212584612000565b81016020851015612134578190505b61214861214085612000565b8301826120e7565b50505b505050565b600082821c905092915050565b600061216e60001984600802612150565b1980831691505092915050565b6000612187838361215d565b9150826002028217905092915050565b6121a18383611f80565b67ffffffffffffffff8111156121ba576121b961181b565b5b6121c48254611fba565b6121cf82828561210a565b6000601f8311600181146121fe57600084156121ec578287013590505b6121f6858261217b565b86555061225e565b601f19841661220c86611feb565b60005b828110156122345784890135825560018201915060208501945060208101905061220f565b86831015612251578489013561224d601f89168261215d565b8355505b6001600288020188555050505b50505050505050565b82818337505050565b61227c60408383612267565b5050565b600061228c8284612270565b60408201915081905092915050565b7f507269766174652d566f74696e673a3a73746174653a20706f6c6c206e6f742060008201527f657869737465642e000000000000000000000000000000000000000000000000602082015250565b60006122f7602883611dcd565b91506123028261229b565b604082019050919050565b60006020820190508181036000830152612326816122ea565b9050919050565b600061233882611da3565b915061234383611da3565b9250828201905063ffffffff81111561235f5761235e611ed5565b5b92915050565b7f507269766174652d566f74696e673a3a766f746520706f6c6c3a20706f6c6c2060008201527f697320636c6f7365642e00000000000000000000000000000000000000000000602082015250565b60006123c1602a83611dcd565b91506123cc82612365565b604082019050919050565b600060208201905081810360008301526123f0816123b4565b9050919050565b7f507269766174652d566f74696e673a3a766f746520706f6c6c3a20766f74657260008201527f20616c726561647920766f746564000000000000000000000000000000000000602082015250565b6000612453602e83611dcd565b915061245e826123f7565b604082019050919050565b6000602082019050818103600083015261248281612446565b9050919050565b600060408201905061249e6000830185611d94565b6124ab6020830184611db3565b9392505050565b60006bffffffffffffffffffffffff82169050919050565b6124d3816124b2565b81146124de57600080fd5b50565b6000815190506124f0816124ca565b92915050565b60006020828403121561250c5761250b6115d2565b5b600061251a848285016124e1565b91505092915050565b7f4e487b7100000000000000000000000000000000000000000000000000000000600052603260045260246000fd5b600060029050919050565b600081905092915050565b6000819050919050565b600081905092915050565b61258681611b70565b6125908184612572565b925061259b82611b86565b8060005b838110156125cc5781516125b38782611b9f565b96506125be83611bb7565b92505060018101905061259f565b505050505050565b60006125e0838361257d565b60408301905092915050565b6000602082019050919050565b61260281612552565b61260c818461255d565b925061261782612568565b8060005b8381101561264857815161262f87826125d4565b965061263a836125ec565b92505060018101905061261b565b505050505050565b6000600b9050919050565b600081905092915050565b6000819050919050565b6000602082019050919050565b61268681612650565b612690818461265b565b925061269b82612666565b8060005b838110156126cc5781516126b38782611b9f565b96506126be83612670565b92505060018101905061269f565b505050505050565b6000610260820190506126ea6000830187611bc4565b6126f760408301866125f9565b61270460c0830185611bc4565b61271261010083018461267d565b95945050505050565b61272481611b3a565b811461272f57600080fd5b50565b6000815190506127418161271b565b92915050565b60006020828403121561275d5761275c6115d2565b5b600061276b84828501612732565b91505092915050565b7f507269766174652d566f74696e673a3a766f746520706f6c6c3a2070726f6f6660008201527f20697320696e636f726563740000000000000000000000000000000000000000602082015250565b60006127d0602c83611dcd565b91506127db82612774565b604082019050919050565b600060208201905081810360008301526127ff816127c3565b9050919050565b600060808201905061281b6000830187611721565b6128286020830186611721565b6128356040830185611721565b6128426060830184611721565b95945050505050565b60008151905061285a816115e6565b92915050565b60008060408385031215612877576128766115d2565b5b60006128858582860161284b565b92505060206128968582860161284b565b9150509250929050565b7f507269766174652d566f74696e673a3a636c6f736520706f6c6c3a20706f6c6c60008201527f206f6e6c792063616e20626520636c6f7365642069662069742069732073756360208201527f636565646564206f722061637469766500000000000000000000000000000000604082015250565b6000612922605083611dcd565b915061292d826128a0565b606082019050919050565b6000602082019050818103600083015261295181612915565b9050919050565b6000600a9050919050565b600081905092915050565b6000819050919050565b6000602082019050919050565b61298e81612958565b6129988184612963565b92506129a38261296e565b8060005b838110156129d45781516129bb8782611b9f565b96506129c683612978565b9250506001810190506129a7565b505050505050565b6000610240820190506129f26000830187611bc4565b6129ff60408301866125f9565b612a0c60c0830185611bc4565b612a1a610100830184612985565b95945050505050565b7f507269766174652d566f74696e673a3a636c6f736520706f6c6c3a2070726f6f60008201527f6620697320696e636f7265637400000000000000000000000000000000000000602082015250565b6000612a7f602d83611dcd565b9150612a8a82612a23565b604082019050919050565b60006020820190508181036000830152612aae81612a72565b905091905056fea264697066735822122000796113037119ec1b9273d2e4e46e809c5f21d5f5b625f0a1ca2ae8072e924d64736f6c63430008110033",
  "linkReferences": {},
  "deployedLinkReferences": {}
}